{
  "contractName": "SupplyChain",
  "abi": [
    {
      "inputs": [],
      "payable": true,
      "stateMutability": "payable",
      "type": "constructor"
    },
    {
      "anonymous": false,
      "inputs": [
        {
          "indexed": true,
          "internalType": "address",
          "name": "account",
          "type": "address"
        }
      ],
      "name": "ConsumerAdded",
      "type": "event"
    },
    {
      "anonymous": false,
      "inputs": [
        {
          "indexed": true,
          "internalType": "address",
          "name": "account",
          "type": "address"
        }
      ],
      "name": "ConsumerRemoved",
      "type": "event"
    },
    {
      "anonymous": false,
      "inputs": [
        {
          "indexed": true,
          "internalType": "address",
          "name": "account",
          "type": "address"
        }
      ],
      "name": "DistributorAdded",
      "type": "event"
    },
    {
      "anonymous": false,
      "inputs": [
        {
          "indexed": true,
          "internalType": "address",
          "name": "account",
          "type": "address"
        }
      ],
      "name": "DistributorRemoved",
      "type": "event"
    },
    {
      "anonymous": false,
      "inputs": [
        {
          "indexed": true,
          "internalType": "address",
          "name": "account",
          "type": "address"
        }
      ],
      "name": "FarmerAdded",
      "type": "event"
    },
    {
      "anonymous": false,
      "inputs": [
        {
          "indexed": true,
          "internalType": "address",
          "name": "account",
          "type": "address"
        }
      ],
      "name": "FarmerRemoved",
      "type": "event"
    },
    {
      "anonymous": false,
      "inputs": [
        {
          "indexed": false,
          "internalType": "uint256",
          "name": "upc",
          "type": "uint256"
        }
      ],
      "name": "ForSale",
      "type": "event"
    },
    {
      "anonymous": false,
      "inputs": [
        {
          "indexed": false,
          "internalType": "uint256",
          "name": "upc",
          "type": "uint256"
        }
      ],
      "name": "Harvested",
      "type": "event"
    },
    {
      "anonymous": false,
      "inputs": [
        {
          "indexed": false,
          "internalType": "uint256",
          "name": "upc",
          "type": "uint256"
        }
      ],
      "name": "Packed",
      "type": "event"
    },
    {
      "anonymous": false,
      "inputs": [
        {
          "indexed": false,
          "internalType": "uint256",
          "name": "upc",
          "type": "uint256"
        }
      ],
      "name": "Processed",
      "type": "event"
    },
    {
      "anonymous": false,
      "inputs": [
        {
          "indexed": false,
          "internalType": "uint256",
          "name": "upc",
          "type": "uint256"
        }
      ],
      "name": "Purchased",
      "type": "event"
    },
    {
      "anonymous": false,
      "inputs": [
        {
          "indexed": false,
          "internalType": "uint256",
          "name": "upc",
          "type": "uint256"
        }
      ],
      "name": "Received",
      "type": "event"
    },
    {
      "anonymous": false,
      "inputs": [
        {
          "indexed": true,
          "internalType": "address",
          "name": "account",
          "type": "address"
        }
      ],
      "name": "RetailerAdded",
      "type": "event"
    },
    {
      "anonymous": false,
      "inputs": [
        {
          "indexed": true,
          "internalType": "address",
          "name": "account",
          "type": "address"
        }
      ],
      "name": "RetailerRemoved",
      "type": "event"
    },
    {
      "anonymous": false,
      "inputs": [
        {
          "indexed": false,
          "internalType": "uint256",
          "name": "upc",
          "type": "uint256"
        }
      ],
      "name": "Shipped",
      "type": "event"
    },
    {
      "anonymous": false,
      "inputs": [
        {
          "indexed": false,
          "internalType": "uint256",
          "name": "upc",
          "type": "uint256"
        }
      ],
      "name": "Sold",
      "type": "event"
    },
    {
      "anonymous": false,
      "inputs": [
        {
          "indexed": true,
          "internalType": "address",
          "name": "oldOwner",
          "type": "address"
        },
        {
          "indexed": true,
          "internalType": "address",
          "name": "newOwner",
          "type": "address"
        }
      ],
      "name": "TransferOwnership",
      "type": "event"
    },
    {
      "constant": false,
      "inputs": [
        {
          "internalType": "address",
          "name": "account",
          "type": "address"
        }
      ],
      "name": "addConsumer",
      "outputs": [],
      "payable": false,
      "stateMutability": "nonpayable",
      "type": "function"
    },
    {
      "constant": false,
      "inputs": [
        {
          "internalType": "address",
          "name": "account",
          "type": "address"
        }
      ],
      "name": "addDistributor",
      "outputs": [],
      "payable": false,
      "stateMutability": "nonpayable",
      "type": "function"
    },
    {
      "constant": false,
      "inputs": [
        {
          "internalType": "address",
          "name": "account",
          "type": "address"
        }
      ],
      "name": "addFarmer",
      "outputs": [],
      "payable": false,
      "stateMutability": "nonpayable",
      "type": "function"
    },
    {
      "constant": false,
      "inputs": [
        {
          "internalType": "address",
          "name": "account",
          "type": "address"
        }
      ],
      "name": "addRetailer",
      "outputs": [],
      "payable": false,
      "stateMutability": "nonpayable",
      "type": "function"
    },
    {
      "constant": true,
      "inputs": [
        {
          "internalType": "address",
          "name": "account",
          "type": "address"
        }
      ],
      "name": "isConsumer",
      "outputs": [
        {
          "internalType": "bool",
          "name": "",
          "type": "bool"
        }
      ],
      "payable": false,
      "stateMutability": "view",
      "type": "function"
    },
    {
      "constant": true,
      "inputs": [
        {
          "internalType": "address",
          "name": "account",
          "type": "address"
        }
      ],
      "name": "isDistributor",
      "outputs": [
        {
          "internalType": "bool",
          "name": "",
          "type": "bool"
        }
      ],
      "payable": false,
      "stateMutability": "view",
      "type": "function"
    },
    {
      "constant": true,
      "inputs": [
        {
          "internalType": "address",
          "name": "account",
          "type": "address"
        }
      ],
      "name": "isFarmer",
      "outputs": [
        {
          "internalType": "bool",
          "name": "",
          "type": "bool"
        }
      ],
      "payable": false,
      "stateMutability": "view",
      "type": "function"
    },
    {
      "constant": true,
      "inputs": [],
      "name": "isOwner",
      "outputs": [
        {
          "internalType": "bool",
          "name": "",
          "type": "bool"
        }
      ],
      "payable": false,
      "stateMutability": "view",
      "type": "function"
    },
    {
      "constant": true,
      "inputs": [
        {
          "internalType": "address",
          "name": "account",
          "type": "address"
        }
      ],
      "name": "isRetailer",
      "outputs": [
        {
          "internalType": "bool",
          "name": "",
          "type": "bool"
        }
      ],
      "payable": false,
      "stateMutability": "view",
      "type": "function"
    },
    {
      "constant": true,
      "inputs": [],
      "name": "lookOwner",
      "outputs": [
        {
          "internalType": "address",
          "name": "",
          "type": "address"
        }
      ],
      "payable": false,
      "stateMutability": "view",
      "type": "function"
    },
    {
      "constant": false,
      "inputs": [],
      "name": "renounceConsumer",
      "outputs": [],
      "payable": false,
      "stateMutability": "nonpayable",
      "type": "function"
    },
    {
      "constant": false,
      "inputs": [],
      "name": "renounceDistributor",
      "outputs": [],
      "payable": false,
      "stateMutability": "nonpayable",
      "type": "function"
    },
    {
      "constant": false,
      "inputs": [],
      "name": "renounceFarmer",
      "outputs": [],
      "payable": false,
      "stateMutability": "nonpayable",
      "type": "function"
    },
    {
      "constant": false,
      "inputs": [],
      "name": "renounceOwnership",
      "outputs": [],
      "payable": false,
      "stateMutability": "nonpayable",
      "type": "function"
    },
    {
      "constant": false,
      "inputs": [],
      "name": "renounceRetailer",
      "outputs": [],
      "payable": false,
      "stateMutability": "nonpayable",
      "type": "function"
    },
    {
      "constant": false,
      "inputs": [
        {
          "internalType": "address",
          "name": "newOwner",
          "type": "address"
        }
      ],
      "name": "transferOwnership",
      "outputs": [],
      "payable": false,
      "stateMutability": "nonpayable",
      "type": "function"
    },
    {
      "constant": false,
      "inputs": [],
      "name": "kill",
      "outputs": [],
      "payable": false,
      "stateMutability": "nonpayable",
      "type": "function"
    },
    {
      "constant": false,
      "inputs": [
        {
          "internalType": "uint256",
          "name": "_upc",
          "type": "uint256"
        },
        {
          "internalType": "address payable",
          "name": "_originFarmerID",
          "type": "address"
        },
        {
          "internalType": "string",
          "name": "_originFarmName",
          "type": "string"
        },
        {
          "internalType": "string",
          "name": "_originFarmInformation",
          "type": "string"
        },
        {
          "internalType": "string",
          "name": "_originFarmLatitude",
          "type": "string"
        },
        {
          "internalType": "string",
          "name": "_originFarmLongitude",
          "type": "string"
        },
        {
          "internalType": "string",
          "name": "_productNotes",
          "type": "string"
        }
      ],
      "name": "harvestItem",
      "outputs": [],
      "payable": false,
      "stateMutability": "nonpayable",
      "type": "function"
    },
    {
      "constant": false,
      "inputs": [
        {
          "internalType": "uint256",
          "name": "_upc",
          "type": "uint256"
        }
      ],
      "name": "processItem",
      "outputs": [],
      "payable": false,
      "stateMutability": "nonpayable",
      "type": "function"
    },
    {
      "constant": false,
      "inputs": [
        {
          "internalType": "uint256",
          "name": "_upc",
          "type": "uint256"
        }
      ],
      "name": "packItem",
      "outputs": [],
      "payable": false,
      "stateMutability": "nonpayable",
      "type": "function"
    },
    {
      "constant": false,
      "inputs": [
        {
          "internalType": "uint256",
          "name": "_upc",
          "type": "uint256"
        },
        {
          "internalType": "uint256",
          "name": "_price",
          "type": "uint256"
        }
      ],
      "name": "sellItem",
      "outputs": [],
      "payable": false,
      "stateMutability": "nonpayable",
      "type": "function"
    },
    {
      "constant": false,
      "inputs": [
        {
          "internalType": "uint256",
          "name": "_upc",
          "type": "uint256"
        }
      ],
      "name": "buyItem",
      "outputs": [],
      "payable": true,
      "stateMutability": "payable",
      "type": "function"
    },
    {
      "constant": false,
      "inputs": [
        {
          "internalType": "uint256",
          "name": "_upc",
          "type": "uint256"
        }
      ],
      "name": "shipItem",
      "outputs": [],
      "payable": false,
      "stateMutability": "nonpayable",
      "type": "function"
    },
    {
      "constant": false,
      "inputs": [
        {
          "internalType": "uint256",
          "name": "_upc",
          "type": "uint256"
        }
      ],
      "name": "receiveItem",
      "outputs": [],
      "payable": false,
      "stateMutability": "nonpayable",
      "type": "function"
    },
    {
      "constant": false,
      "inputs": [
        {
          "internalType": "uint256",
          "name": "_upc",
          "type": "uint256"
        }
      ],
      "name": "purchaseItem",
      "outputs": [],
      "payable": false,
      "stateMutability": "nonpayable",
      "type": "function"
    },
    {
      "constant": true,
      "inputs": [
        {
          "internalType": "uint256",
          "name": "_upc",
          "type": "uint256"
        }
      ],
      "name": "fetchItemBufferOne",
      "outputs": [
        {
          "internalType": "uint256",
          "name": "itemSKU",
          "type": "uint256"
        },
        {
          "internalType": "uint256",
          "name": "itemUPC",
          "type": "uint256"
        },
        {
          "internalType": "address",
          "name": "ownerID",
          "type": "address"
        },
        {
          "internalType": "address",
          "name": "originFarmerID",
          "type": "address"
        },
        {
          "internalType": "string",
          "name": "originFarmName",
          "type": "string"
        },
        {
          "internalType": "string",
          "name": "originFarmInformation",
          "type": "string"
        },
        {
          "internalType": "string",
          "name": "originFarmLatitude",
          "type": "string"
        },
        {
          "internalType": "string",
          "name": "originFarmLongitude",
          "type": "string"
        }
      ],
      "payable": false,
      "stateMutability": "view",
      "type": "function"
    },
    {
      "constant": true,
      "inputs": [
        {
          "internalType": "uint256",
          "name": "_upc",
          "type": "uint256"
        }
      ],
      "name": "fetchItemBufferTwo",
      "outputs": [
        {
          "internalType": "uint256",
          "name": "itemSKU",
          "type": "uint256"
        },
        {
          "internalType": "uint256",
          "name": "itemUPC",
          "type": "uint256"
        },
        {
          "internalType": "uint256",
          "name": "productID",
          "type": "uint256"
        },
        {
          "internalType": "string",
          "name": "productNotes",
          "type": "string"
        },
        {
          "internalType": "uint256",
          "name": "productPrice",
          "type": "uint256"
        },
        {
          "internalType": "uint256",
          "name": "itemState",
          "type": "uint256"
        },
        {
          "internalType": "address",
          "name": "distributorID",
          "type": "address"
        },
        {
          "internalType": "address",
          "name": "retailerID",
          "type": "address"
        },
        {
          "internalType": "address",
          "name": "consumerID",
          "type": "address"
        }
      ],
      "payable": false,
      "stateMutability": "view",
      "type": "function"
    }
  ],
  "bytecode": "0x608060405262000015336200015d60201b60201c565b6200002633620001be60201b60201c565b62000037336200021f60201b60201c565b62000048336200028060201b60201c565b33600460006101000a81548173ffffffffffffffffffffffffffffffffffffffff021916908373ffffffffffffffffffffffffffffffffffffffff160217905550600460009054906101000a900473ffffffffffffffffffffffffffffffffffffffff1673ffffffffffffffffffffffffffffffffffffffff16600073ffffffffffffffffffffffffffffffffffffffff167f5c486528ec3e3f0ea91181cff8116f02bfa350e03b8b6f12e00765adbb5af85c60405160405180910390a333600560006101000a81548173ffffffffffffffffffffffffffffffffffffffff021916908373ffffffffffffffffffffffffffffffffffffffff160217905550600160078190555060016006819055506200042a565b62000178816000620002e160201b62002a5e1790919060201c565b8073ffffffffffffffffffffffffffffffffffffffff167f28b26e7a3d20aedbc5f8f2ebf7da671c0491723a2b78f47a097b0e46dee0714260405160405180910390a250565b620001d9816001620002e160201b62002a5e1790919060201c565b8073ffffffffffffffffffffffffffffffffffffffff167fddbf200aa634dc3fb81cfd68583dd1040d1c751d335e1d86b631bde3e977fea860405160405180910390a250565b6200023a816002620002e160201b62002a5e1790919060201c565b8073ffffffffffffffffffffffffffffffffffffffff167f2e0ded4123377a3c2bc9a26f1717655a129e2f20752924d42e730ec89c83dbd060405160405180910390a250565b6200029b816003620002e160201b62002a5e1790919060201c565b8073ffffffffffffffffffffffffffffffffffffffff167f71ae26cad02663e3d92efd6ec56031a80d74a20c0ab4183faa8bf262261c9baa60405160405180910390a250565b600073ffffffffffffffffffffffffffffffffffffffff168173ffffffffffffffffffffffffffffffffffffffff1614156200031c57600080fd5b6200032e82826200039760201b60201c565b156200033957600080fd5b60018260000160008373ffffffffffffffffffffffffffffffffffffffff1673ffffffffffffffffffffffffffffffffffffffff16815260200190815260200160002060006101000a81548160ff0219169083151502179055505050565b60008073ffffffffffffffffffffffffffffffffffffffff168273ffffffffffffffffffffffffffffffffffffffff161415620003d357600080fd5b8260000160008373ffffffffffffffffffffffffffffffffffffffff1673ffffffffffffffffffffffffffffffffffffffff16815260200190815260200160002060009054906101000a900460ff16905092915050565b612c8f806200043a6000396000f3fe60806040526004361061019c5760003560e01c8063834ff739116100ec578063d38ea5bf1161008a578063e7fb74c711610064578063e7fb74c714610db9578063f2fde38b14610de7578063f30fc48014610e38578063f61c899a14610e735761019c565b8063d38ea5bf14610d10578063d3a1610714610d4b578063db0e6a2f14610da25761019c565b80638f32d59b116100c65780638f32d59b146108ef578063a26be9991461091e578063b942906914610959578063bdd8a6a8146109c25761019c565b8063834ff739146107cc5780638ec4f505146108355780638f0c86fa146108865761019c565b8063644241db116101595780637250e224116101335780637250e224146104a757806377c45913146104f857806380c3f96d1461076457806380fc0ce4146107b55761019c565b8063644241db1461030957806366225ff914610320578063715018a6146104905761019c565b8063112940f9146101a15780632d923561146101f257806341c0e1b51461023757806349dae7661461024e5780635da09b881461028957806361e6982d146102f2575b600080fd5b3480156101ad57600080fd5b506101f0600480360360208110156101c457600080fd5b81019080803573ffffffffffffffffffffffffffffffffffffffff169060200190929190505050610eae565b005b3480156101fe57600080fd5b506102356004803603604081101561021557600080fd5b810190808035906020019092919080359060200190929190505050610ecc565b005b34801561024357600080fd5b5061024c610fee565b005b34801561025a57600080fd5b506102876004803603602081101561027157600080fd5b8101908080359060200190929190505050611081565b005b34801561029557600080fd5b506102d8600480360360208110156102ac57600080fd5b81019080803573ffffffffffffffffffffffffffffffffffffffff1690602001909291905050506111b6565b604051808215151515815260200191505060405180910390f35b3480156102fe57600080fd5b506103076111d3565b005b34801561031557600080fd5b5061031e6111de565b005b34801561032c57600080fd5b506103596004803603602081101561034357600080fd5b81019080803590602001909291905050506111e9565b604051808a8152602001898152602001888152602001806020018781526020018681526020018573ffffffffffffffffffffffffffffffffffffffff1673ffffffffffffffffffffffffffffffffffffffff1681526020018473ffffffffffffffffffffffffffffffffffffffff1673ffffffffffffffffffffffffffffffffffffffff1681526020018373ffffffffffffffffffffffffffffffffffffffff1673ffffffffffffffffffffffffffffffffffffffff168152602001828103825288818151815260200191508051906020019080838360005b8381101561044d578082015181840152602081019050610432565b50505050905090810190601f16801561047a5780820380516001836020036101000a031916815260200191505b509a505050505050505050505060405180910390f35b34801561049c57600080fd5b506104a56113fb565b005b3480156104b357600080fd5b506104f6600480360360208110156104ca57600080fd5b81019080803573ffffffffffffffffffffffffffffffffffffffff1690602001909291905050506114cd565b005b34801561050457600080fd5b506105316004803603602081101561051b57600080fd5b81019080803590602001909291905050506114eb565b604051808981526020018881526020018773ffffffffffffffffffffffffffffffffffffffff1673ffffffffffffffffffffffffffffffffffffffff1681526020018673ffffffffffffffffffffffffffffffffffffffff1673ffffffffffffffffffffffffffffffffffffffff16815260200180602001806020018060200180602001858103855289818151815260200191508051906020019080838360005b838110156105ed5780820151818401526020810190506105d2565b50505050905090810190601f16801561061a5780820380516001836020036101000a031916815260200191505b50858103845288818151815260200191508051906020019080838360005b83811015610653578082015181840152602081019050610638565b50505050905090810190601f1680156106805780820380516001836020036101000a031916815260200191505b50858103835287818151815260200191508051906020019080838360005b838110156106b957808201518184015260208101905061069e565b50505050905090810190601f1680156106e65780820380516001836020036101000a031916815260200191505b50858103825286818151815260200191508051906020019080838360005b8381101561071f578082015181840152602081019050610704565b50505050905090810190601f16801561074c5780820380516001836020036101000a031916815260200191505b509c5050505050505050505050505060405180910390f35b34801561077057600080fd5b506107b36004803603602081101561078757600080fd5b81019080803573ffffffffffffffffffffffffffffffffffffffff16906020019092919050505061186c565b005b3480156107c157600080fd5b506107ca61188a565b005b3480156107d857600080fd5b5061081b600480360360208110156107ef57600080fd5b81019080803573ffffffffffffffffffffffffffffffffffffffff169060200190929190505050611895565b604051808215151515815260200191505060405180910390f35b34801561084157600080fd5b506108846004803603602081101561085857600080fd5b81019080803573ffffffffffffffffffffffffffffffffffffffff1690602001909291905050506118b2565b005b34801561089257600080fd5b506108d5600480360360208110156108a957600080fd5b81019080803573ffffffffffffffffffffffffffffffffffffffff1690602001909291905050506118d0565b604051808215151515815260200191505060405180910390f35b3480156108fb57600080fd5b506109046118ed565b604051808215151515815260200191505060405180910390f35b34801561092a57600080fd5b506109576004803603602081101561094157600080fd5b8101908080359060200190929190505050611945565b005b34801561096557600080fd5b506109a86004803603602081101561097c57600080fd5b81019080803573ffffffffffffffffffffffffffffffffffffffff169060200190929190505050611af5565b604051808215151515815260200191505060405180910390f35b3480156109ce57600080fd5b50610d0e600480360360e08110156109e557600080fd5b8101908080359060200190929190803573ffffffffffffffffffffffffffffffffffffffff16906020019092919080359060200190640100000000811115610a2c57600080fd5b820183602082011115610a3e57600080fd5b80359060200191846001830284011164010000000083111715610a6057600080fd5b91908080601f016020809104026020016040519081016040528093929190818152602001838380828437600081840152601f19601f82011690508083019250505050505050919291929080359060200190640100000000811115610ac357600080fd5b820183602082011115610ad557600080fd5b80359060200191846001830284011164010000000083111715610af757600080fd5b91908080601f016020809104026020016040519081016040528093929190818152602001838380828437600081840152601f19601f82011690508083019250505050505050919291929080359060200190640100000000811115610b5a57600080fd5b820183602082011115610b6c57600080fd5b80359060200191846001830284011164010000000083111715610b8e57600080fd5b91908080601f016020809104026020016040519081016040528093929190818152602001838380828437600081840152601f19601f82011690508083019250505050505050919291929080359060200190640100000000811115610bf157600080fd5b820183602082011115610c0357600080fd5b80359060200191846001830284011164010000000083111715610c2557600080fd5b91908080601f016020809104026020016040519081016040528093929190818152602001838380828437600081840152601f19601f82011690508083019250505050505050919291929080359060200190640100000000811115610c8857600080fd5b820183602082011115610c9a57600080fd5b80359060200191846001830284011164010000000083111715610cbc57600080fd5b91908080601f016020809104026020016040519081016040528093929190818152602001838380828437600081840152601f19601f820116905080830192505050505050509192919290505050611b12565b005b348015610d1c57600080fd5b50610d4960048036036020811015610d3357600080fd5b8101908080359060200190929190505050611eba565b005b348015610d5757600080fd5b50610d60612030565b604051808273ffffffffffffffffffffffffffffffffffffffff1673ffffffffffffffffffffffffffffffffffffffff16815260200191505060405180910390f35b348015610dae57600080fd5b50610db761205a565b005b610de560048036036020811015610dcf57600080fd5b8101908080359060200190929190505050612065565b005b348015610df357600080fd5b50610e3660048036036020811015610e0a57600080fd5b81019080803573ffffffffffffffffffffffffffffffffffffffff169060200190929190505050612370565b005b348015610e4457600080fd5b50610e7160048036036020811015610e5b57600080fd5b810190808035906020019092919050505061238d565b005b348015610e7f57600080fd5b50610eac60048036036020811015610e9657600080fd5b81019080803590602001909291905050506124fc565b005b610eb733611895565b610ec057600080fd5b610ec981612602565b50565b610ed533611af5565b610ede57600080fd5b8160026007811115610eec57fe5b60086000838152602001908152602001600020600b0160009054906101000a900460ff166007811115610f1b57fe5b14610f2557600080fd5b338073ffffffffffffffffffffffffffffffffffffffff163373ffffffffffffffffffffffffffffffffffffffff1614610f5e57600080fd5b600360086000868152602001908152602001600020600b0160006101000a81548160ff02191690836007811115610f9157fe5b02179055508260086000868152602001908152602001600020600a01819055507fa96ae0fc3224ebd79eebfe54bd130cc9cb94416cddd1f2386115e00b72532468846040518082815260200191505060405180910390a150505050565b600560009054906101000a900473ffffffffffffffffffffffffffffffffffffffff1673ffffffffffffffffffffffffffffffffffffffff163373ffffffffffffffffffffffffffffffffffffffff16141561107f57600560009054906101000a900473ffffffffffffffffffffffffffffffffffffffff1673ffffffffffffffffffffffffffffffffffffffff16ff5b565b61108a33611af5565b61109357600080fd5b80600060078111156110a157fe5b60086000838152602001908152602001600020600b0160009054906101000a900460ff1660078111156110d057fe5b14611143576040517f08c379a000000000000000000000000000000000000000000000000000000000815260040180806020018281038252601d8152602001807f546865206974656d206973206e6f74207965742068617276657374656400000081525060200191505060405180910390fd5b600160086000848152602001908152602001600020600b0160006101000a81548160ff0219169083600781111561117657fe5b02179055507f5afe3b1bf87069693c075da5c22a98d63d1aef98a30dbbe538d0781a98b77ee5826040518082815260200191505060405180910390a15050565b60006111cc82600361265c90919063ffffffff16565b9050919050565b6111dc336126ee565b565b6111e733612748565b565b600080600060606000806000806000600860008b8152602001908152602001600020600001549850899750600860008b8152602001908152602001600020600801549650600860008b81526020019081526020016000206009018054600181600116156101000203166002900480601f0160208091040260200160405190810160405280929190818152602001828054600181600116156101000203166002900480156112d75780601f106112ac576101008083540402835291602001916112d7565b820191906000526020600020905b8154815290600101906020018083116112ba57829003601f168201915b50505050509550600860008b8152602001908152602001600020600a01549450600860008b8152602001908152602001600020600b0160009054906101000a900460ff16600781111561132657fe5b9350600860008b8152602001908152602001600020600b0160019054906101000a900473ffffffffffffffffffffffffffffffffffffffff169250600860008b8152602001908152602001600020600c0160009054906101000a900473ffffffffffffffffffffffffffffffffffffffff169150600860008b8152602001908152602001600020600d0160009054906101000a900473ffffffffffffffffffffffffffffffffffffffff1690508888888888888888889850985098509850985098509850985098509193959799909294969850565b6114036118ed565b61140c57600080fd5b600073ffffffffffffffffffffffffffffffffffffffff16600460009054906101000a900473ffffffffffffffffffffffffffffffffffffffff1673ffffffffffffffffffffffffffffffffffffffff167f5c486528ec3e3f0ea91181cff8116f02bfa350e03b8b6f12e00765adbb5af85c60405160405180910390a36000600460006101000a81548173ffffffffffffffffffffffffffffffffffffffff021916908373ffffffffffffffffffffffffffffffffffffffff160217905550565b6114d6336118d0565b6114df57600080fd5b6114e8816127a2565b50565b600080600080606080606080600860008a8152602001908152602001600020600001549750889650600860008a815260200190815260200160002060020160009054906101000a900473ffffffffffffffffffffffffffffffffffffffff169550600860008a815260200190815260200160002060030160009054906101000a900473ffffffffffffffffffffffffffffffffffffffff169450600860008a81526020019081526020016000206004018054600181600116156101000203166002900480601f01602080910402602001604051908101604052809291908181526020018280546001816001161561010002031660029004801561162f5780601f106116045761010080835404028352916020019161162f565b820191906000526020600020905b81548152906001019060200180831161161257829003601f168201915b50505050509350600860008a81526020019081526020016000206005018054600181600116156101000203166002900480601f0160208091040260200160405190810160405280929190818152602001828054600181600116156101000203166002900480156116e05780601f106116b5576101008083540402835291602001916116e0565b820191906000526020600020905b8154815290600101906020018083116116c357829003601f168201915b50505050509250600860008a81526020019081526020016000206006018054600181600116156101000203166002900480601f0160208091040260200160405190810160405280929190818152602001828054600181600116156101000203166002900480156117915780601f1061176657610100808354040283529160200191611791565b820191906000526020600020905b81548152906001019060200180831161177457829003601f168201915b50505050509150600860008a81526020019081526020016000206007018054600181600116156101000203166002900480601f0160208091040260200160405190810160405280929190818152602001828054600181600116156101000203166002900480156118425780601f1061181757610100808354040283529160200191611842565b820191906000526020600020905b81548152906001019060200180831161182557829003601f168201915b50505050509050878787878787878797509750975097509750975097509750919395975091939597565b61187533611af5565b61187e57600080fd5b611887816127fc565b50565b61189333612856565b565b60006118ab82600061265c90919063ffffffff16565b9050919050565b6118bb336111b6565b6118c457600080fd5b6118cd816128b0565b50565b60006118e682600161265c90919063ffffffff16565b9050919050565b6000600460009054906101000a900473ffffffffffffffffffffffffffffffffffffffff1673ffffffffffffffffffffffffffffffffffffffff163373ffffffffffffffffffffffffffffffffffffffff1614905090565b61194e336111b6565b61195757600080fd5b338073ffffffffffffffffffffffffffffffffffffffff163373ffffffffffffffffffffffffffffffffffffffff161461199057600080fd5b816005600781111561199e57fe5b60086000838152602001908152602001600020600b0160009054906101000a900460ff1660078111156119cd57fe5b146119d757600080fd5b336008600085815260200190815260200160002060020160006101000a81548173ffffffffffffffffffffffffffffffffffffffff021916908373ffffffffffffffffffffffffffffffffffffffff160217905550600660086000858152602001908152602001600020600b0160006101000a81548160ff02191690836007811115611a5f57fe5b02179055503360086000858152602001908152602001600020600c0160006101000a81548173ffffffffffffffffffffffffffffffffffffffff021916908373ffffffffffffffffffffffffffffffffffffffff1602179055507fa8142743f8f70a4c26f3691cf4ed59718381fb2f18070ec52be1f1022d855557836040518082815260200191505060405180910390a1505050565b6000611b0b82600261265c90919063ffffffff16565b9050919050565b611b1b33611af5565b611b2457600080fd5b604051806101e0016040528060075481526020018881526020013373ffffffffffffffffffffffffffffffffffffffff1681526020018773ffffffffffffffffffffffffffffffffffffffff168152602001868152602001858152602001848152602001838152602001886007540181526020018281526020016000815260200160006007811115611bb257fe5b8152602001600073ffffffffffffffffffffffffffffffffffffffff168152602001600073ffffffffffffffffffffffffffffffffffffffff168152602001600073ffffffffffffffffffffffffffffffffffffffff1681525060086000898152602001908152602001600020600082015181600001556020820151816001015560408201518160020160006101000a81548173ffffffffffffffffffffffffffffffffffffffff021916908373ffffffffffffffffffffffffffffffffffffffff16021790555060608201518160030160006101000a81548173ffffffffffffffffffffffffffffffffffffffff021916908373ffffffffffffffffffffffffffffffffffffffff1602179055506080820151816004019080519060200190611cdd929190612bb5565b5060a0820151816005019080519060200190611cfa929190612bb5565b5060c0820151816006019080519060200190611d17929190612bb5565b5060e0820151816007019080519060200190611d34929190612bb5565b506101008201518160080155610120820151816009019080519060200190611d5d929190612bb5565b5061014082015181600a015561016082015181600b0160006101000a81548160ff02191690836007811115611d8e57fe5b021790555061018082015181600b0160016101000a81548173ffffffffffffffffffffffffffffffffffffffff021916908373ffffffffffffffffffffffffffffffffffffffff1602179055506101a082015181600c0160006101000a81548173ffffffffffffffffffffffffffffffffffffffff021916908373ffffffffffffffffffffffffffffffffffffffff1602179055506101c082015181600d0160006101000a81548173ffffffffffffffffffffffffffffffffffffffff021916908373ffffffffffffffffffffffffffffffffffffffff1602179055509050506001600754016007819055507f8e55ccfc9778ff8eba1646d765cf1982537ce0f9257054a17b48aad745250183876040518082815260200191505060405180910390a150505050505050565b611ec333611895565b611ecc57600080fd5b8060066007811115611eda57fe5b60086000838152602001908152602001600020600b0160009054906101000a900460ff166007811115611f0957fe5b14611f1357600080fd5b336008600084815260200190815260200160002060020160006101000a81548173ffffffffffffffffffffffffffffffffffffffff021916908373ffffffffffffffffffffffffffffffffffffffff160217905550600760086000848152602001908152602001600020600b0160006101000a81548160ff02191690836007811115611f9b57fe5b02179055503360086000848152602001908152602001600020600d0160006101000a81548173ffffffffffffffffffffffffffffffffffffffff021916908373ffffffffffffffffffffffffffffffffffffffff1602179055507f653d56639fee6b566a5c804764e9689de38645f0b733df89a36a1b7b42173dd8826040518082815260200191505060405180910390a15050565b6000600460009054906101000a900473ffffffffffffffffffffffffffffffffffffffff16905090565b6120633361290a565b565b61206e336118d0565b61207757600080fd5b338073ffffffffffffffffffffffffffffffffffffffff163373ffffffffffffffffffffffffffffffffffffffff16146120b057600080fd5b81600360078111156120be57fe5b60086000838152602001908152602001600020600b0160009054906101000a900460ff1660078111156120ed57fe5b146120f757600080fd5b60086000848152602001908152602001600020600a01548034101561211b57600080fd5b83600060086000838152602001908152602001600020600a015490506000813403905060086000848152602001908152602001600020600d0160009054906101000a900473ffffffffffffffffffffffffffffffffffffffff1673ffffffffffffffffffffffffffffffffffffffff166108fc829081150290604051600060405180830381858888f193505050501580156121ba573d6000803e3d6000fd5b50336008600089815260200190815260200160002060020160006101000a81548173ffffffffffffffffffffffffffffffffffffffff021916908373ffffffffffffffffffffffffffffffffffffffff160217905550600460086000898152602001908152602001600020600b0160006101000a81548160ff0219169083600781111561224357fe5b02179055503360086000898152602001908152602001600020600b0160016101000a81548173ffffffffffffffffffffffffffffffffffffffff021916908373ffffffffffffffffffffffffffffffffffffffff1602179055506008600088815260200190815260200160002060030160009054906101000a900473ffffffffffffffffffffffffffffffffffffffff1673ffffffffffffffffffffffffffffffffffffffff166108fc600860008a8152602001908152602001600020600a01549081150290604051600060405180830381858888f1935050505015801561232f573d6000803e3d6000fd5b507f92f64ca637d023f354075a4be751b169c1a8a9ccb6d33cdd0cb3520543995727876040518082815260200191505060405180910390a150505050505050565b6123786118ed565b61238157600080fd5b61238a81612964565b50565b61239633611af5565b61239f57600080fd5b80600160078111156123ad57fe5b60086000838152602001908152602001600020600b0160009054906101000a900460ff1660078111156123dc57fe5b1461244f576040517f08c379a000000000000000000000000000000000000000000000000000000000815260040180806020018281038252601d8152602001807f546865206974656d206973206e6f74207965742070726f63657373656400000081525060200191505060405180910390fd5b338073ffffffffffffffffffffffffffffffffffffffff163373ffffffffffffffffffffffffffffffffffffffff161461248857600080fd5b600260086000858152602001908152602001600020600b0160006101000a81548160ff021916908360078111156124bb57fe5b02179055507f9b3b66e2380b690bae22c73ef1428fb0c91e72fe14a4b6defa13035214187aff836040518082815260200191505060405180910390a1505050565b612505336118d0565b61250e57600080fd5b806004600781111561251c57fe5b60086000838152602001908152602001600020600b0160009054906101000a900460ff16600781111561254b57fe5b1461255557600080fd5b338073ffffffffffffffffffffffffffffffffffffffff163373ffffffffffffffffffffffffffffffffffffffff161461258e57600080fd5b600560086000858152602001908152602001600020600b0160006101000a81548160ff021916908360078111156125c157fe5b02179055507ff00b9a5725b80c54016f42114f6ed7792d22eecb116011c4afac29c57bef6c95836040518082815260200191505060405180910390a1505050565b612616816000612a5e90919063ffffffff16565b8073ffffffffffffffffffffffffffffffffffffffff167f28b26e7a3d20aedbc5f8f2ebf7da671c0491723a2b78f47a097b0e46dee0714260405160405180910390a250565b60008073ffffffffffffffffffffffffffffffffffffffff168273ffffffffffffffffffffffffffffffffffffffff16141561269757600080fd5b8260000160008373ffffffffffffffffffffffffffffffffffffffff1673ffffffffffffffffffffffffffffffffffffffff16815260200190815260200160002060009054906101000a900460ff16905092915050565b612702816000612b0a90919063ffffffff16565b8073ffffffffffffffffffffffffffffffffffffffff167fe3f5ed5f263f1f01764a96edfc7d025f511ec5f7d180e8816908b78bcf74f09860405160405180910390a250565b61275c816001612b0a90919063ffffffff16565b8073ffffffffffffffffffffffffffffffffffffffff167f126174f6cf49c81cdb4a9214c6b8f037bef55b4ec31e4fc776cea2a1c8a88d5960405160405180910390a250565b6127b6816001612a5e90919063ffffffff16565b8073ffffffffffffffffffffffffffffffffffffffff167fddbf200aa634dc3fb81cfd68583dd1040d1c751d335e1d86b631bde3e977fea860405160405180910390a250565b612810816002612a5e90919063ffffffff16565b8073ffffffffffffffffffffffffffffffffffffffff167f2e0ded4123377a3c2bc9a26f1717655a129e2f20752924d42e730ec89c83dbd060405160405180910390a250565b61286a816002612b0a90919063ffffffff16565b8073ffffffffffffffffffffffffffffffffffffffff167fa5e0f060af304ab17dd418c7927e3da3ae7868189bf387aee09ab179ccc572f260405160405180910390a250565b6128c4816003612a5e90919063ffffffff16565b8073ffffffffffffffffffffffffffffffffffffffff167f71ae26cad02663e3d92efd6ec56031a80d74a20c0ab4183faa8bf262261c9baa60405160405180910390a250565b61291e816003612b0a90919063ffffffff16565b8073ffffffffffffffffffffffffffffffffffffffff167fdb7176e79cffef81cb01767dd0447a0b24bb72ca9778d4b245581086b2a7e6db60405160405180910390a250565b600073ffffffffffffffffffffffffffffffffffffffff168173ffffffffffffffffffffffffffffffffffffffff16141561299e57600080fd5b8073ffffffffffffffffffffffffffffffffffffffff16600460009054906101000a900473ffffffffffffffffffffffffffffffffffffffff1673ffffffffffffffffffffffffffffffffffffffff167f5c486528ec3e3f0ea91181cff8116f02bfa350e03b8b6f12e00765adbb5af85c60405160405180910390a380600460006101000a81548173ffffffffffffffffffffffffffffffffffffffff021916908373ffffffffffffffffffffffffffffffffffffffff16021790555050565b600073ffffffffffffffffffffffffffffffffffffffff168173ffffffffffffffffffffffffffffffffffffffff161415612a9857600080fd5b612aa2828261265c565b15612aac57600080fd5b60018260000160008373ffffffffffffffffffffffffffffffffffffffff1673ffffffffffffffffffffffffffffffffffffffff16815260200190815260200160002060006101000a81548160ff0219169083151502179055505050565b600073ffffffffffffffffffffffffffffffffffffffff168173ffffffffffffffffffffffffffffffffffffffff161415612b4457600080fd5b612b4e828261265c565b612b5757600080fd5b60008260000160008373ffffffffffffffffffffffffffffffffffffffff1673ffffffffffffffffffffffffffffffffffffffff16815260200190815260200160002060006101000a81548160ff0219169083151502179055505050565b828054600181600116156101000203166002900490600052602060002090601f016020900481019282601f10612bf657805160ff1916838001178555612c24565b82800160010185558215612c24579182015b82811115612c23578251825591602001919060010190612c08565b5b509050612c319190612c35565b5090565b612c5791905b80821115612c53576000816000905550600101612c3b565b5090565b9056fea265627a7a723158205d8f6e0aa4e5c5048cdea7e07c50113e29a8d0d8af540e028e460646c83dfcf664736f6c63430005100032",
  "source": "pragma solidity ^0.5.16;\r\n\r\n//  Import the accesscontrol of each role\r\nimport \"../coffeeaccesscontrol/ConsumerRole.sol\";\r\nimport \"../coffeeaccesscontrol/DistributorRole.sol\";\r\nimport \"../coffeeaccesscontrol/FarmerRole.sol\";\r\nimport \"../coffeeaccesscontrol/RetailerRole.sol\";\r\nimport \"../coffeecore/Ownable.sol\";\r\n\r\n// Define a contract 'Supplychain'\r\ncontract SupplyChain is ConsumerRole, DistributorRole, FarmerRole, RetailerRole, Ownable {\r\n\r\n  // Define 'owner'\r\n  address payable owner;\r\n\r\n  // Define a variable called 'upc' for Universal Product Code (UPC)\r\n  uint  upc;\r\n\r\n  // Define a variable called 'sku' for Stock Keeping Unit (SKU)\r\n  uint  sku;\r\n\r\n  // Define a public mapping 'items' that maps the UPC to an Item.\r\n  mapping (uint => Item) items;\r\n\r\n  // Define a public mapping 'itemsHistory' that maps the UPC to an array of TxHash, \r\n  // that track its journey through the supply chain -- to be sent from DApp.\r\n  mapping (uint => string[]) itemsHistory;\r\n  \r\n  // Define enum 'State' with the following values:\r\n  enum State \r\n  { \r\n    Harvested,  // 0\r\n    Processed,  // 1\r\n    Packed,     // 2\r\n    ForSale,    // 3\r\n    Sold,       // 4\r\n    Shipped,    // 5\r\n    Received,   // 6\r\n    Purchased   // 7\r\n    }\r\n\r\n  State constant defaultState = State.Harvested;\r\n\r\n  // Define a struct 'Item' with the following fields:\r\n  struct Item {\r\n    uint    sku;  // Stock Keeping Unit (SKU)\r\n    uint    upc; // Universal Product Code (UPC), generated by the Farmer, goes on the package, can be verified by the Consumer\r\n    address ownerID;  // Metamask-Ethereum address of the current owner as the product moves through 8 stages\r\n    address payable originFarmerID; // Metamask-Ethereum address of the Farmer\r\n    string  originFarmName; // Farmer Name\r\n    string  originFarmInformation;  // Farmer Information\r\n    string  originFarmLatitude; // Farm Latitude\r\n    string  originFarmLongitude;  // Farm Longitude\r\n    uint    productID;  // Product ID potentially a combination of upc + sku\r\n    string  productNotes; // Product Notes\r\n    uint    productPrice; // Product Price\r\n    State   itemState;  // Product State as represented in the enum above\r\n    address payable distributorID;  // Metamask-Ethereum address of the Distributor\r\n    address retailerID; // Metamask-Ethereum address of the Retailer\r\n    address payable consumerID; // Metamask-Ethereum address of the Consumer\r\n  }\r\n\r\n  // Define 8 events with the same 8 state values and accept 'upc' as input argument\r\n  event Harvested(uint upc);\r\n  event Processed(uint upc);\r\n  event Packed(uint upc);\r\n  event ForSale(uint upc);\r\n  event Sold(uint upc);\r\n  event Shipped(uint upc);\r\n  event Received(uint upc);\r\n  event Purchased(uint upc);\r\n\r\n  // Define a modifer that verifies the Caller\r\n  modifier verifyCaller (address _address) {\r\n    require(msg.sender == _address); \r\n    _;\r\n  }\r\n\r\n  // Define a modifier that checks if the paid amount is sufficient to cover the price\r\n  modifier paidEnough(uint _price) { \r\n    require(msg.value >= _price); \r\n    _;\r\n  }\r\n  \r\n  // Define a modifier that checks the price and refunds the remaining balance\r\n  modifier checkValue(uint _upc) {\r\n    uint _price = items[_upc].productPrice;\r\n    uint amountToReturn = msg.value - _price;\r\n    items[_upc].consumerID.transfer(amountToReturn);\r\n    _;\r\n  }\r\n\r\n  // Define a modifier that checks if an item.state of a upc is Harvested\r\n  modifier harvested(uint _upc) {\r\n    require(items[_upc].itemState == State.Harvested, \"The item is not yet harvested\");\r\n    _;\r\n  }\r\n\r\n  // Define a modifier that checks if an item.state of a upc is Processed\r\n  modifier processed(uint _upc) {\r\n    require(items[_upc].itemState == State.Processed, \"The item is not yet processed\");\r\n    _;\r\n  }\r\n  \r\n  // Define a modifier that checks if an item.state of a upc is Packed\r\n  modifier packed(uint _upc) {\r\n    require(items[_upc].itemState == State.Packed);\r\n    _;\r\n  }\r\n\r\n  // Define a modifier that checks if an item.state of a upc is ForSale\r\n  modifier forSale(uint _upc) {\r\n    require(items[_upc].itemState == State.ForSale);\r\n    _;\r\n  }\r\n\r\n  // Define a modifier that checks if an item.state of a upc is Sold\r\n  modifier sold(uint _upc) {\r\n    require(items[_upc].itemState == State.Sold);\r\n    _;\r\n  }\r\n  \r\n  // Define a modifier that checks if an item.state of a upc is Shipped\r\n  modifier shipped(uint _upc) {\r\n    require(items[_upc].itemState == State.Shipped);\r\n    _;\r\n  }\r\n\r\n  // Define a modifier that checks if an item.state of a upc is Received\r\n  modifier received(uint _upc) {\r\n    require(items[_upc].itemState == State.Received);\r\n    _;\r\n  }\r\n\r\n  // Define a modifier that checks if an item.state of a upc is Purchased\r\n  modifier purchased(uint _upc) {\r\n    require(items[_upc].itemState == State.Purchased);\r\n    _;\r\n  }\r\n\r\n  // In the constructor set 'owner' to the address that instantiated the contract\r\n  // and set 'sku' to 1\r\n  // and set 'upc' to 1\r\n  constructor() public payable {\r\n    owner = msg.sender;\r\n    sku = 1;\r\n    upc = 1;\r\n  }\r\n\r\n  // Define a function 'kill' if required\r\n  function kill() public {\r\n    if (msg.sender == owner) {\r\n      selfdestruct(owner);\r\n    }\r\n  }\r\n\r\n  // Define a function 'harvestItem' that allows a farmer to mark an item 'Harvested'\r\n  function harvestItem(uint _upc, address payable _originFarmerID, string memory _originFarmName, string memory _originFarmInformation, string memory _originFarmLatitude, string memory _originFarmLongitude, string memory _productNotes) public onlyFarmer\r\n  {\r\n    // Add the new item as part of Harvest\r\n    items[_upc] = Item({\r\n      sku: sku,\r\n      upc: _upc,\r\n      ownerID: msg.sender,\r\n      originFarmerID: _originFarmerID,\r\n      originFarmName: _originFarmName,\r\n      originFarmInformation: _originFarmInformation,\r\n      originFarmLatitude: _originFarmLatitude,\r\n      originFarmLongitude: _originFarmLongitude,\r\n      productID: sku + _upc,\r\n      productNotes: _productNotes,\r\n      productPrice: 0,\r\n      itemState: defaultState,\r\n      distributorID: address(0),\r\n      retailerID: address(0),\r\n      consumerID: address(0)       \r\n    });\r\n\r\n    // Increment sku\r\n    sku = sku + 1;\r\n    // Emit the appropriate event\r\n    emit Harvested(_upc);\r\n\r\n  }\r\n\r\n  // Define a function 'processtItem' that allows a farmer to mark an item 'Processed'\r\n  function processItem(uint _upc) public onlyFarmer harvested(_upc) \r\n  {\r\n    // Update the appropriate fields\r\n    items[_upc].itemState = State.Processed;\r\n\r\n    // Emit the appropriate event\r\n    emit Processed(_upc);\r\n  }\r\n\r\n  // Define a function 'packItem' that allows a farmer to mark an item 'Packed'\r\n  function packItem(uint _upc) public onlyFarmer\r\n  // Call modifier to check if upc has passed previous supply chain stage\r\n  processed(_upc)\r\n  // Call modifier to verify caller of this function\r\n  verifyCaller(msg.sender)\r\n\r\n  {\r\n    // Update the appropriate fields\r\n    items[_upc].itemState = State.Packed;\r\n    // Emit the appropriate event\r\n    emit Packed(_upc);\r\n  }\r\n\r\n  // Define a function 'sellItem' that allows a farmer to mark an item 'ForSale'\r\n  function sellItem(uint _upc, uint _price) public onlyFarmer\r\n  // Call modifier to check if upc has passed previous supply chain stage\r\n  packed(_upc)\r\n  // Call modifier to verify caller of this function\r\n  verifyCaller(msg.sender)\r\n  {\r\n    // Update the appropriate fields\r\n    items[_upc].itemState = State.ForSale;\r\n    items[_upc].productPrice = _price;\r\n    // Emit the appropriate event\r\n    emit ForSale(_upc);\r\n  }\r\n\r\n  // Define a function 'buyItem' that allows the disributor to mark an item 'Sold'\r\n  // Use the above defined modifiers to check if the item is available for sale, if the buyer has paid enough, \r\n  // and any excess ether sent is refunded back to the buyer\r\n  function buyItem(uint _upc) public payable onlyDistributor verifyCaller(msg.sender)\r\n    // Call modifier to check if upc has passed previous supply chain stage\r\n    forSale(_upc)\r\n    // Call modifer to check if buyer has paid enough\r\n    paidEnough(items[_upc].productPrice)\r\n    // Call modifer to send any excess ether back to buyer\r\n    checkValue(_upc)\r\n    {\r\n    \r\n    // Update the appropriate fields - ownerID, distributorID, itemState\r\n    items[_upc].ownerID = msg.sender;\r\n    items[_upc].itemState = State.Sold;\r\n    items[_upc].distributorID = msg.sender;\r\n\r\n    // Transfer money to farmer\r\n    items[_upc].originFarmerID.transfer(items[_upc].productPrice);\r\n    // emit the appropriate event\r\n    emit Sold(_upc);\r\n  }\r\n\r\n  // Define a function 'shipItem' that allows the distributor to mark an item 'Shipped'\r\n  // Use the above modifers to check if the item is sold\r\n  function shipItem(uint _upc) public onlyDistributor\r\n    // Call modifier to check if upc has passed previous supply chain stage\r\n    sold(_upc)\r\n    // Call modifier to verify caller of this function\r\n    verifyCaller(msg.sender)\r\n    {\r\n    // Update the appropriate fields\r\n    items[_upc].itemState = State.Shipped;\r\n    // Emit the appropriate event\r\n    emit Shipped(_upc);\r\n  }\r\n\r\n  // Define a function 'receiveItem' that allows the retailer to mark an item 'Received'\r\n  // Use the above modifiers to check if the item is shipped\r\n  function receiveItem(uint _upc) public onlyRetailer verifyCaller(msg.sender)\r\n    // Call modifier to check if upc has passed previous supply chain stage\r\n    shipped(_upc)\r\n    // Access Control List enforced by calling Smart Contract / DApp\r\n    {\r\n    // Update the appropriate fields - ownerID, retailerID, itemState\r\n    items[_upc].ownerID = msg.sender;\r\n    items[_upc].itemState = State.Received;\r\n    items[_upc].retailerID = msg.sender;\r\n\r\n    // Emit the appropriate event\r\n    emit Received(_upc);\r\n  }\r\n\r\n  // Define a function 'purchaseItem' that allows the consumer to mark an item 'Purchased'\r\n  // Use the above modifiers to check if the item is received\r\n  function purchaseItem(uint _upc) public onlyConsumer\r\n    // Call modifier to check if upc has passed previous supply chain stage\r\n    received(_upc)\r\n    // Access Control List enforced by calling Smart Contract / DApp\r\n    {\r\n    // Update the appropriate fields - ownerID, consumerID, itemState\r\n    items[_upc].ownerID = msg.sender;\r\n    items[_upc].itemState = State.Purchased;\r\n    items[_upc].consumerID = msg.sender;\r\n\r\n    // Emit the appropriate event\r\n    emit Purchased(_upc);\r\n  }\r\n\r\n  // Define a function 'fetchItemBufferOne' that fetches the data\r\n  function fetchItemBufferOne(uint _upc) public view returns \r\n  (\r\n  uint    itemSKU,\r\n  uint    itemUPC,\r\n  address ownerID,\r\n  address originFarmerID,\r\n  string memory originFarmName,\r\n  string memory originFarmInformation,\r\n  string memory originFarmLatitude,\r\n  string memory originFarmLongitude\r\n  ) \r\n  {\r\n  // Assign values to the 8 parameters\r\n  itemSKU = items[_upc].sku;\r\n  itemUPC = _upc;\r\n  ownerID = items[_upc].ownerID;\r\n  originFarmerID = items[_upc].originFarmerID;\r\n  originFarmName = items[_upc].originFarmName;\r\n  originFarmInformation = items[_upc].originFarmInformation;\r\n  originFarmLatitude = items[_upc].originFarmLatitude;\r\n  originFarmLongitude = items[_upc].originFarmLongitude;\r\n    \r\n  return \r\n  (\r\n  itemSKU,\r\n  itemUPC,\r\n  ownerID,\r\n  originFarmerID,\r\n  originFarmName,\r\n  originFarmInformation,\r\n  originFarmLatitude,\r\n  originFarmLongitude\r\n  );\r\n  }\r\n\r\n  // Define a function 'fetchItemBufferTwo' that fetches the data\r\n  function fetchItemBufferTwo(uint _upc) public view returns \r\n  (\r\n  uint    itemSKU,\r\n  uint    itemUPC,\r\n  uint    productID,\r\n  string memory productNotes,\r\n  uint    productPrice,\r\n  uint    itemState,\r\n  address distributorID,\r\n  address retailerID,\r\n  address consumerID\r\n  ) \r\n  {\r\n    // Assign values to the 9 parameters\r\n    itemSKU = items[_upc].sku;\r\n    itemUPC = _upc;\r\n    productID = items[_upc].productID;\r\n    productNotes = items[_upc].productNotes;\r\n    productPrice = items[_upc].productPrice;\r\n    itemState = uint(items[_upc].itemState);\r\n    distributorID = items[_upc].distributorID;\r\n    retailerID = items[_upc].retailerID;\r\n    consumerID = items[_upc].consumerID;\r\n    \r\n  return \r\n  (\r\n  itemSKU,\r\n  itemUPC,\r\n  productID,\r\n  productNotes,\r\n  productPrice,\r\n  itemState,\r\n  distributorID,\r\n  retailerID,\r\n  consumerID\r\n  );\r\n  }\r\n}\r\n",
  "sourcePath": "C:/Users/muham/Desktop/Project6/project-6/contracts/coffeebase/SupplyChain.sol",
  "compiler": {
    "name": "solc",
    "version": "0.5.16+commit.9c3226ce.Emscripten.clang"
  },
  "schemaVersion": "3.3.2",
  "updatedAt": "2020-12-17T09:41:03.256Z",
  "networkType": "ethereum",
  "devdoc": {
    "methods": {}
  },
  "userdoc": {
    "methods": {
      "isOwner()": {
        "notice": "Check if the calling address is the owner of the contract"
      },
      "lookOwner()": {
        "notice": "Look up the address of the owner"
      },
      "renounceOwnership()": {
        "notice": "Define a function to renounce ownerhip"
      },
      "transferOwnership(address)": {
        "notice": "Define a public function to transfer ownership"
      }
    }
  }
}